{
  "_format": "hh-sol-artifact-1",
  "contractName": "Lottery",
  "sourceName": "contracts/Lottery.sol",
  "abi": [
    {
      "inputs": [],
      "stateMutability": "nonpayable",
      "type": "constructor"
    },
    {
      "inputs": [],
      "name": "enter",
      "outputs": [],
      "stateMutability": "payable",
      "type": "function"
    },
    {
      "inputs": [],
      "name": "getNumOfPlayer",
      "outputs": [
        {
          "internalType": "uint256",
          "name": "",
          "type": "uint256"
        }
      ],
      "stateMutability": "view",
      "type": "function"
    },
    {
      "inputs": [],
      "name": "getPlayers",
      "outputs": [
        {
          "internalType": "address[]",
          "name": "",
          "type": "address[]"
        }
      ],
      "stateMutability": "view",
      "type": "function"
    },
    {
      "inputs": [],
      "name": "getTotalMoney",
      "outputs": [
        {
          "internalType": "uint256",
          "name": "",
          "type": "uint256"
        }
      ],
      "stateMutability": "view",
      "type": "function"
    },
    {
      "inputs": [
        {
          "internalType": "address",
          "name": "",
          "type": "address"
        }
      ],
      "name": "isPlayers",
      "outputs": [
        {
          "internalType": "bool",
          "name": "",
          "type": "bool"
        }
      ],
      "stateMutability": "view",
      "type": "function"
    },
    {
      "inputs": [],
      "name": "manager",
      "outputs": [
        {
          "internalType": "address",
          "name": "",
          "type": "address"
        }
      ],
      "stateMutability": "view",
      "type": "function"
    },
    {
      "inputs": [
        {
          "internalType": "address",
          "name": "",
          "type": "address"
        }
      ],
      "name": "moneyPlayers",
      "outputs": [
        {
          "internalType": "uint256",
          "name": "",
          "type": "uint256"
        }
      ],
      "stateMutability": "view",
      "type": "function"
    },
    {
      "inputs": [],
      "name": "pickWinner",
      "outputs": [],
      "stateMutability": "payable",
      "type": "function"
    },
    {
      "inputs": [
        {
          "internalType": "uint256",
          "name": "",
          "type": "uint256"
        }
      ],
      "name": "players",
      "outputs": [
        {
          "internalType": "address",
          "name": "",
          "type": "address"
        }
      ],
      "stateMutability": "view",
      "type": "function"
    },
    {
      "inputs": [],
      "name": "quit",
      "outputs": [],
      "stateMutability": "payable",
      "type": "function"
    },
    {
      "inputs": [],
      "name": "random",
      "outputs": [
        {
          "internalType": "uint256",
          "name": "",
          "type": "uint256"
        }
      ],
      "stateMutability": "view",
      "type": "function"
    }
  ],
  "bytecode": "0x608060405234801561001057600080fd5b50336000806101000a81548173ffffffffffffffffffffffffffffffffffffffff021916908373ffffffffffffffffffffffffffffffffffffffff1602179055506113d3806100606000396000f3fe60806040526004361061009c5760003560e01c80635ec01e4d116100645780635ec01e4d1461017b5780638b5b9ccc146101a6578063bd54c75f146101d1578063e97dcb62146101fc578063f71d96cb14610206578063fc2b8cc3146102435761009c565b8063054ffab6146100a15780631958cf67146100cc578063302be36914610109578063481c6a75146101465780635d495aea14610171575b600080fd5b3480156100ad57600080fd5b506100b661024d565b6040516100c39190611035565b60405180910390f35b3480156100d857600080fd5b506100f360048036038101906100ee9190610cae565b610255565b6040516101009190611035565b60405180910390f35b34801561011557600080fd5b50610130600480360381019061012b9190610cae565b61026d565b60405161013d9190610f7a565b60405180910390f35b34801561015257600080fd5b5061015b61028d565b6040516101689190610f3d565b60405180910390f35b6101796102b1565b005b34801561018757600080fd5b506101906104d7565b60405161019d9190611035565b60405180910390f35b3480156101b257600080fd5b506101bb61050d565b6040516101c89190610f58565b60405180910390f35b3480156101dd57600080fd5b506101e661059b565b6040516101f39190611035565b60405180910390f35b6102046105a8565b005b34801561021257600080fd5b5061022d60048036038101906102289190610cd7565b61077f565b60405161023a9190610f3d565b60405180910390f35b61024b6107be565b005b600047905090565b60036020528060005260406000206000915090505481565b60046020528060005260406000206000915054906101000a900460ff1681565b60008054906101000a900473ffffffffffffffffffffffffffffffffffffffff1681565b60008054906101000a900473ffffffffffffffffffffffffffffffffffffffff1673ffffffffffffffffffffffffffffffffffffffff163373ffffffffffffffffffffffffffffffffffffffff161461033f576040517f08c379a000000000000000000000000000000000000000000000000000000000815260040161033690611015565b60405180910390fd5b600060018054905011610387576040517f08c379a000000000000000000000000000000000000000000000000000000000815260040161037e90610f95565b60405180910390fd5b60006001805490506103976104d7565b6103a191906111a7565b9050600181815481106103dd577f4e487b7100000000000000000000000000000000000000000000000000000000600052603260045260246000fd5b9060005260206000200160009054906101000a900473ffffffffffffffffffffffffffffffffffffffff1673ffffffffffffffffffffffffffffffffffffffff166108fc479081150290604051600060405180830381858888f1935050505015801561044d573d6000803e3d6000fd5b50600067ffffffffffffffff81111561048f577f4e487b7100000000000000000000000000000000000000000000000000000000600052604160045260246000fd5b6040519080825280602002602001820160405280156104bd5781602001602082028036833780820191505090505b50600190805190602001906104d3929190610b8b565b5050565b6000444260016040516020016104ef93929190610f04565b6040516020818303038152906040528051906020012060001c905090565b6060600180548060200260200160405190810160405280929190818152602001828054801561059157602002820191906000526020600020905b8160009054906101000a900473ffffffffffffffffffffffffffffffffffffffff1673ffffffffffffffffffffffffffffffffffffffff1681526020019060010190808311610547575b5050505050905090565b6000600180549050905090565b662386f26fc1000034116105f1576040517f08c379a00000000000000000000000000000000000000000000000000000000081526004016105e890610fd5565b60405180910390fd5b600460003373ffffffffffffffffffffffffffffffffffffffff1673ffffffffffffffffffffffffffffffffffffffff16815260200190815260200160002060009054906101000a900460ff161561067e576040517f08c379a000000000000000000000000000000000000000000000000000000000815260040161067590610ff5565b60405180910390fd5b6001339080600181540180825580915050600190039060005260206000200160009091909190916101000a81548173ffffffffffffffffffffffffffffffffffffffff021916908373ffffffffffffffffffffffffffffffffffffffff16021790555034600360003373ffffffffffffffffffffffffffffffffffffffff1673ffffffffffffffffffffffffffffffffffffffff168152602001908152602001600020819055506001600460003373ffffffffffffffffffffffffffffffffffffffff1673ffffffffffffffffffffffffffffffffffffffff16815260200190815260200160002060006101000a81548160ff021916908315150217905550565b6001818154811061078f57600080fd5b906000526020600020016000915054906101000a900473ffffffffffffffffffffffffffffffffffffffff1681565b600460003373ffffffffffffffffffffffffffffffffffffffff1673ffffffffffffffffffffffffffffffffffffffff16815260200190815260200160002060009054906101000a900460ff1661084a576040517f08c379a000000000000000000000000000000000000000000000000000000000815260040161084190610fb5565b60405180910390fd5b3373ffffffffffffffffffffffffffffffffffffffff166108fc600360003373ffffffffffffffffffffffffffffffffffffffff1673ffffffffffffffffffffffffffffffffffffffff168152602001908152602001600020549081150290604051600060405180830381858888f193505050501580156108cf573d6000803e3d6000fd5b506000600360003373ffffffffffffffffffffffffffffffffffffffff1673ffffffffffffffffffffffffffffffffffffffff168152602001908152602001600020819055506000600460003373ffffffffffffffffffffffffffffffffffffffff1673ffffffffffffffffffffffffffffffffffffffff16815260200190815260200160002060006101000a81548160ff02191690831515021790555060005b600180549050811015610aef573373ffffffffffffffffffffffffffffffffffffffff16600182815481106109ce577f4e487b7100000000000000000000000000000000000000000000000000000000600052603260045260246000fd5b9060005260206000200160009054906101000a900473ffffffffffffffffffffffffffffffffffffffff1673ffffffffffffffffffffffffffffffffffffffff1614610adc57600260018281548110610a50577f4e487b7100000000000000000000000000000000000000000000000000000000600052603260045260246000fd5b9060005260206000200160009054906101000a900473ffffffffffffffffffffffffffffffffffffffff169080600181540180825580915050600190039060005260206000200160009091909190916101000a81548173ffffffffffffffffffffffffffffffffffffffff021916908373ffffffffffffffffffffffffffffffffffffffff1602179055505b8080610ae790611154565b915050610970565b5060026001908054610b02929190610c15565b50600067ffffffffffffffff811115610b44577f4e487b7100000000000000000000000000000000000000000000000000000000600052604160045260246000fd5b604051908082528060200260200182016040528015610b725781602001602082028036833780820191505090505b5060029080519060200190610b88929190610b8b565b50565b828054828255906000526020600020908101928215610c04579160200282015b82811115610c035782518260006101000a81548173ffffffffffffffffffffffffffffffffffffffff021916908373ffffffffffffffffffffffffffffffffffffffff16021790555091602001919060010190610bab565b5b509050610c119190610c67565b5090565b828054828255906000526020600020908101928215610c565760005260206000209182015b82811115610c55578254825591600101919060010190610c3a565b5b509050610c639190610c67565b5090565b5b80821115610c80576000816000905550600101610c68565b5090565b600081359050610c938161136f565b92915050565b600081359050610ca881611386565b92915050565b600060208284031215610cc057600080fd5b6000610cce84828501610c84565b91505092915050565b600060208284031215610ce957600080fd5b6000610cf784828501610c99565b91505092915050565b6000610d0c8383610d30565b60208301905092915050565b6000610d248383610d4e565b60208301905092915050565b610d39816110f2565b82525050565b610d48816110f2565b82525050565b610d57816110f2565b82525050565b6000610d6882611075565b610d7281856110a5565b9350610d7d83611050565b8060005b83811015610dae578151610d958882610d00565b9750610da08361108b565b925050600181019050610d81565b5085935050505092915050565b6000610dc682611080565b610dd081856110b6565b9350610ddb83611060565b8060005b83811015610e1357610df082611236565b610dfa8882610d18565b9750610e0583611098565b925050600181019050610ddf565b5085935050505092915050565b610e2981611104565b82525050565b6000610e3c6020836110c1565b9150610e4782611256565b602082019050919050565b6000610e5f6029836110c1565b9150610e6a8261127f565b604082019050919050565b6000610e826019836110c1565b9150610e8d826112ce565b602082019050919050565b6000610ea56027836110c1565b9150610eb0826112f7565b604082019050919050565b6000610ec86020836110c1565b9150610ed382611346565b602082019050919050565b610ee781611130565b82525050565b610efe610ef982611130565b61119d565b82525050565b6000610f108286610eed565b602082019150610f208285610eed565b602082019150610f308284610dbb565b9150819050949350505050565b6000602082019050610f526000830184610d3f565b92915050565b60006020820190508181036000830152610f728184610d5d565b905092915050565b6000602082019050610f8f6000830184610e20565b92915050565b60006020820190508181036000830152610fae81610e2f565b9050919050565b60006020820190508181036000830152610fce81610e52565b9050919050565b60006020820190508181036000830152610fee81610e75565b9050919050565b6000602082019050818103600083015261100e81610e98565b9050919050565b6000602082019050818103600083015261102e81610ebb565b9050919050565b600060208201905061104a6000830184610ede565b92915050565b6000819050602082019050919050565b60008190508160005260206000209050919050565b600081519050919050565b600081549050919050565b6000602082019050919050565b6000600182019050919050565b600082825260208201905092915050565b600081905092915050565b600082825260208201905092915050565b600073ffffffffffffffffffffffffffffffffffffffff82169050919050565b60006110fd82611110565b9050919050565b60008115159050919050565b600073ffffffffffffffffffffffffffffffffffffffff82169050919050565b6000819050919050565b600061114d61114883611249565b6110d2565b9050919050565b600061115f82611130565b91507fffffffffffffffffffffffffffffffffffffffffffffffffffffffffffffffff821415611192576111916111d8565b5b600182019050919050565b6000819050919050565b60006111b282611130565b91506111bd83611130565b9250826111cd576111cc611207565b5b828206905092915050565b7f4e487b7100000000000000000000000000000000000000000000000000000000600052601160045260246000fd5b7f4e487b7100000000000000000000000000000000000000000000000000000000600052601260045260246000fd5b6000611242825461113a565b9050919050565b60008160001c9050919050565b7f4c6f74746572793a206e6f206f6e65206a6f696e20746865206c6f7474657279600082015250565b7f4c6f74746572793a20796f752068617665206e6f7420656e746572656420746860008201527f65204c6f74746572790000000000000000000000000000000000000000000000602082015250565b7f4c6f74746572793a206e6f7420656e6f756768206d6f6e657900000000000000600082015250565b7f4c6f74746572793a20796f7520616c7265616479206a6f696e6564207468652060008201527f4c6f747465727900000000000000000000000000000000000000000000000000602082015250565b7f4c6f74657272793a20796f7520617265206e6f7420746865206d616e61676572600082015250565b611378816110f2565b811461138357600080fd5b50565b61138f81611130565b811461139a57600080fd5b5056fea264697066735822122005c6da916d71583f737ff34d5d2cbee1e070d330207b8f3e8b9208ab84a6a06964736f6c63430008040033",
  "linkReferences": {},
  "deployedLinkReferences": {}
}